:020000040800F2
:1000000000A0002059030008A9030008A903000864
:10001000A9030008A9030008A903000800000000C4
:10002000000000000000000000000000A90300081C
:10003000A903000800000000A9030008A9030008A4
:10004000A9030008A9030008A9030008A9030008E0
:10005000A9030008A9030008A9030008A9030008D0
:10006000A9030008A9030008A9030008A9030008C0
:10007000A9030008A9030008A9030008A9030008B0
:10008000A9030008A9030008A9030008A9030008A0
:10009000A9030008A9030008A9030008A903000890
:1000A000A9030008A9030008A9030008A903000880
:1000B000A9030008A9030008A9030008A903000870
:1000C000A9030008A9030008A9030008A903000860
:1000D000A9030008A9030008A9030008A903000850
:1000E000A9030008A9030008A9030008A903000840
:1000F000A9030008A9030008A9030008A903000830
:10010000A90300080000000000000000A903000887
:10011000A9030008A9030008A9030008A90300080F
:10012000A9030008A9030008A9030008A9030008FF
:10013000A9030008A9030008000000000000000057
:10014000A9030008A9030008A90300080000000093
:10015000000000000000000000000000000000009F
:10016000A9030008A9030008A9030008A9030008BF
:10017000A9030008A9030008A9030008A9030008AF
:10018000A9030008000000000000000000000000BB
:04019000A9030008B7
:1001940010B5054C237833B9044B13B10448AFF3BD
:1001A40000800123237010BD000000200000000027
:1001B400600B000808B5034B1BB103490348AFF3B8
:1001C400008008BD0000000004000020600B00084F
:1001D400034613F8012B002AFBD1181A0138704783
:1001E40080B584B000AF114B7B6002237B72052382
:1001F4007B7300233B730123FB720223BB720D2329
:100204003B723B1D184600F06DF90F233B723B1DFA
:10021400184600F067F90C233B723B1D184600F0AA
:1002240061F900BF1037BD4680BD00BF000400481F
:1002340080B584B000AF0C4B7B6001233B7201237B
:100244007B720023BB720023FB7200233B730023E9
:100254007B730223BB733B1D184600F09DFB00BF5C
:100264001037BD4680BD00BF0038004080B584B063
:1002740000AF4FF090437B6000233B7204237B72FA
:100284000023BB720123FB723B1D184600F02AF9C0
:1002940000BF1037BD4680BD80B483B000AF0023DB
:1002A4007B6002E07B6801337B607B68044A934295
:1002B400F8DD00BF00BF0C37BD4680BC704700BFEF
:1002C4008FD0030080B584B000AF204A3B1D07CA1D
:1002D40083E80700FFF7CAFFFFF782FFFFF7A8FFD5
:1002E40001211B4800F0FAFB00BF00214FF09040B1
:1002F40000F0E6FA0346002BF7D0FFF7CDFF01210B
:10030400134800F0D0FB3B1D1846FFF761FF03467E
:10031400DBB2FB70FB1C012219460D4800F08CFB7C
:100324003B1D1846FFF754FF02463B1D194608487B
:1003340000F082FB00BF064B9B6803F08003002B98
:10034400F9D10021024800F0AEFBCDE7780B00089C
:10035400003800400D488546AFF300800C480D4935
:100364000D4A002302E0D458C4500433C4188C420C
:10037400F9D30A4A0A4C002301E013600432A24272
:10038400FBD300F0C7FBFFF79DFFFEE700A00020B2
:100394000000002000000020940B00080000002052
:1003A4001C000020FEE7000080B483B000AF78603A
:1003B4000B46FB70FB78012B41D17B68B3F1904F66
:1003C40006D1424B5B69414A43F40033536177E001
:1003D4007B683F4A934206D13C4B5B693B4A43F4FA
:1003E400802353616CE07B683A4A934206D1374BD1
:1003F4005B69364A43F40023536161E07B68364A03
:10040400934206D1314B5B69304A43F48013536104
:1004140056E07B68314A934206D12C4B5B692B4AE8
:1004240043F4800353614BE07B682D4A934247D1E8
:10043400264B5B69254A43F40013536140E07B6813
:10044400B3F1904F06D1214B5B69204A23F400336A
:10045400536135E07B681E4A934206D11B4B5B69AE
:100464001A4A23F4802353612AE07B68194A934291
:1004740006D1164B5B69154A23F4002353611FE030
:100484007B68154A934206D1104B5B690F4A23F4EB
:100494008013536114E07B68104A934206D10B4BDE
:1004A4005B690A4A23F48003536109E07B680C4AC0
:1004B400934205D1054B5B69044A23F4001353614D
:1004C40000BF0C37BD4680BC704700BF001002401F
:1004D4000004004800080048000C004800140048CC
:1004E4000010004880B584B000AF78600023FB6042
:1004F4007B681B6801211846FFF756FF7B681B7950
:10050400FB72FB7A0F2B00F2D5817B685B79032B9E
:100514001ED87B685B791A46FB7A5B0002FA03F308
:10052400FB607B681B681A68FB7A5B00032101FA95
:1005340003F3DB4319467B681B680A401A607B6837
:100544001B6819687B681B68FA680A431A6024E10F
:100554007B681B68B3F1904F24D07B681B68814A89
:1005640093421DD07B681B687F4A934216D07B68F8
:100574001B687E4A93420FD07B681B687C4A934277
:1005840008D07B681B687B4A934201D105230AE0AB
:10059400002308E0042306E0032304E0022302E02E
:1005A400012300E00023BB72734B9B69724A43F042
:1005B40001039361714AFB7A9B08D8B20346023364
:1005C4009B0013445B68FA7A02F0030292000F2145
:1005D40001FA02F2D24369491A40831C9B000B447E
:1005E4005A60664AFB7A9B08D8B2034602339B00E2
:1005F40013445B68B97AFA7A02F00302920001FAB2
:1006040002F25E491A43831C9B000B445A607B68C8
:100614005B79042B30D1FB7A1F2B15D8584BDB6840
:10062400FA7A012101FA02F21146554A0B43D360CA
:10063400534B9B68FA7A012101FA02F2D243114624
:100644004F4A0B4093607EE04D4B5B6AFA7A203A46
:10065400012101FA02F21146494A0B435362484B05
:100664001B6AFA7A203A012101FA02F2D2431146B6
:10067400434A0B40136266E07B685B79052B30D1FB
:10068400FB7A1F2B15D83E4B9B68FA7A012101FA9D
:1006940002F211463A4A0B439360394BDB68FA7A0B
:1006A400012101FA02F2D2431146354A0B40D360CC
:1006B40049E0334B1B6AFA7A203A012101FA02F22B
:1006C40011462F4A0B4313622D4B5B6AFA7A203A88
:1006D400012101FA02F2D2431146294A0B40536226
:1006E40031E07B685B79062B2DD1FB7A1F2B14D864
:1006F400234B9B68FA7A012101FA02F21146204A3F
:100704000B4393601E4BDB68FA7A012101FA02F273
:1007140011461B4A0B43D36015E0194B1B6AFA7A46
:10072400203A012101FA02F21146154A0B431362E1
:10073400134B5B6AFA7A203A012101FA02F211465C
:100744000F4A0B435362FB7A1F2B1BD80C4B1B68BD
:10075400FA7A012101FA02F21146094A0B431360A5
:100764001BE000BF0004004800080048000C0048DB
:10077400001000480014004800100240000001402E
:10078400000401404D4B9B69FA7A203A012101FA99
:1007940002F21146494A0B4393617B689B791A46DE
:1007A400FB7A5B0002FA03F3FB607B681B689A68C0
:1007B400FB7A5B00032101FA03F3DB4319467B68F0
:1007C4001B680A409A607B681B6899687B681B6891
:1007D400FA680A439A607B68DB791A46FB7A5B0005
:1007E40002FA03F3FB607B681B68DA68FB7A5B0040
:1007F400032101FA03F3DB4319467B681B680A40B3
:10080400DA607B681B68D9687B681B68FA680A43EE
:10081400DA607B681B7A1A46FB7A02FA03F3FB6000
:100824007B681B685A68FB7A012101FA03F3DB43F6
:1008340019467B681B680A405A607B681B685968C4
:100844007B681B68FA680A435A607B685B79022BF1
:1008540031D1FB7ADB087B72FB7A03F00703DBB24E
:100864009B003B727B681B687A7A083253F822102B
:100874003B7A0F2202FA03F3DB4318467B681B68BA
:100884007A7A0140083243F822107B681B687A7A2E
:10089400083253F822107B685B7A1A463B7A02FAD4
:1008A40003F318467B681B687A7A0143083243F8DD
:1008B400221000E000BF1037BD4680BD0004014097
:1008C40080B483B000AF78600B46FB707B681A6914
:1008D400FB7822FA03F3DBB203F00103DBB2184620
:1008E4000C37BD4680BC704780B483B000AF7860DD
:1008F4000B46FB70FB78012B20D17B68224A934284
:1009040006D1224B9B69214A43F48053936135E01D
:100914007B681F4A934206D11C4BDB691B4A43F494
:100924008043D3612AE07B681A4A934226D1174B4D
:10093400DB69164A43F40043D3611FE07B68124A23
:10094400934206D1114B9B69104A23F4805393615F
:1009540014E07B680E4A934206D10C4BDB690B4AC8
:1009640023F48043D36109E07B680A4A934205D1AA
:10097400064BDB69054A23F40043D36100BF0C37FF
:10098400BD4680BC704700BF0030014000100240EB
:1009940000380040003C004080B584B000AF78606F
:1009A4007B681B6801211846FFF79EFF0023FB604C
:1009B4007B681B799B00FA681343FB607B685B7957
:1009C400012B04D1FB6823F40043FB6014E07B6833
:1009D4005B79022B04D1FB6843F40043FB600BE01A
:1009E4007B685B79032B07D1FB6823F40043FB602E
:1009F400FB6843F48063FB607B689B79DB02FA68E5
:100A04001343FB607B68DB791A46FB681343FB6086
:100A14007B681B7A5B00FA681343FB607B689B7AF4
:100A2400DB00FA681343FB607B681B68FA681A6092
:100A340000BF1037BD4680BD80B485B000AFF860FC
:100A4400B9607A6026E000BFFB689B6803F002038C
:100A5400002BF9D0FB681B6803F40063002B0ED055
:100A6400BB681B881A46FB68DA607B68013B7B60C5
:100A74007B68013B7B60BB680133BB600AE0BB68F9
:100A84001B781A46FB68DA607B68013B7B60BB68B5
:100A94000133BB607B68002BD5D100BF00BF143786
:100AA400BD4680BC704780B483B000AF78600B460D
:100AB400FB70FB78012B06D17B681B6843F0400276
:100AC4007B681A6005E07B681B6823F040027B6842
:100AD4001A6000BF0C37BD4680BC704780B483B039
:100AE40000AF78600B46FB70FB78012B06D17B6866
:100AF4005B6843F004027B685A6005E07B685B68CE
:100B040023F004027B685A6000BF0C37BD4680BCEA
:100B14007047000070B50D4D0D4C641BA4100026E9
:100B2400A64209D10B4D0C4C00F018F8641BA4101C
:100B34000026A64205D170BD55F8043B98470136FE
:100B4400EEE755F8043B98470136F2E78C0B0008B2
:100B54008C0B00088C0B0008900B0008F8B500BF44
:100B6400F8BC08BC9E467047F8B500BFF8BC08BC8A
:040B74009E467047E2
:0C0B780048656C6C6F20576F726C640055
:080B840050F6FF7F01000000A4
:040B8C00B9010008A3
:040B900095010008C3
:040000050800035993
:00000001FF
